{
  "_format": "hh-sol-artifact-1",
  "contractName": "Guestbook",
  "sourceName": "contracts/Guestbook.sol",
  "abi": [
    {
      "inputs": [],
      "stateMutability": "payable",
      "type": "constructor"
    },
    {
      "anonymous": false,
      "inputs": [
        {
          "indexed": true,
          "internalType": "address",
          "name": "from",
          "type": "address"
        },
        {
          "indexed": false,
          "internalType": "uint256",
          "name": "timestamp",
          "type": "uint256"
        },
        {
          "indexed": false,
          "internalType": "string",
          "name": "message",
          "type": "string"
        }
      ],
      "name": "NewGuest",
      "type": "event"
    },
    {
      "inputs": [],
      "name": "getGuestCount",
      "outputs": [
        {
          "internalType": "uint256",
          "name": "",
          "type": "uint256"
        }
      ],
      "stateMutability": "view",
      "type": "function"
    },
    {
      "inputs": [],
      "name": "getGuestbook",
      "outputs": [
        {
          "components": [
            {
              "internalType": "address",
              "name": "wallet",
              "type": "address"
            },
            {
              "internalType": "uint256",
              "name": "timestamp",
              "type": "uint256"
            },
            {
              "internalType": "string",
              "name": "message",
              "type": "string"
            }
          ],
          "internalType": "struct Guestbook.Guest[]",
          "name": "",
          "type": "tuple[]"
        }
      ],
      "stateMutability": "view",
      "type": "function"
    },
    {
      "inputs": [],
      "name": "guestCount",
      "outputs": [
        {
          "internalType": "uint256",
          "name": "",
          "type": "uint256"
        }
      ],
      "stateMutability": "view",
      "type": "function"
    },
    {
      "inputs": [
        {
          "internalType": "address",
          "name": "",
          "type": "address"
        }
      ],
      "name": "lastSignedAt",
      "outputs": [
        {
          "internalType": "uint256",
          "name": "",
          "type": "uint256"
        }
      ],
      "stateMutability": "view",
      "type": "function"
    },
    {
      "inputs": [
        {
          "internalType": "string",
          "name": "_message",
          "type": "string"
        }
      ],
      "name": "sign",
      "outputs": [],
      "stateMutability": "nonpayable",
      "type": "function"
    }
  ],
  "bytecode": "0x6080604052620000336040518060600160405280602c815260200162001709602c91396200005b60201b620006701760201c565b6064444262000043919062000160565b6200004f9190620001ca565b600181905550620002c0565b620000fb816040516024016200007291906200029c565b6040516020818303038152906040527f41304fac000000000000000000000000000000000000000000000000000000007bffffffffffffffffffffffffffffffffffffffffffffffffffffffff19166020820180517bffffffffffffffffffffffffffffffffffffffffffffffffffffffff8381831617835250505050620000fe60201b60201c565b50565b60008151905060006a636f6e736f6c652e6c6f679050602083016000808483855afa5050505050565b6000819050919050565b7f4e487b7100000000000000000000000000000000000000000000000000000000600052601160045260246000fd5b60006200016d8262000127565b91506200017a8362000127565b925082820190508082111562000195576200019462000131565b5b92915050565b7f4e487b7100000000000000000000000000000000000000000000000000000000600052601260045260246000fd5b6000620001d78262000127565b9150620001e48362000127565b925082620001f757620001f66200019b565b5b828206905092915050565b600081519050919050565b600082825260208201905092915050565b60005b838110156200023e57808201518184015260208101905062000221565b60008484015250505050565b6000601f19601f8301169050919050565b6000620002688262000202565b6200027481856200020d565b9350620002868185602086016200021e565b62000291816200024a565b840191505092915050565b60006020820190508181036000830152620002b881846200025b565b905092915050565b61143980620002d06000396000f3fe608060405234801561001057600080fd5b50600436106100575760003560e01c80631e9590fb1461005c57806378b2250f1461007a57806379d6348d1461009857806397203543146100b4578063f11bf557146100d2575b600080fd5b610064610102565b6040516100719190610b05565b60405180910390f35b610082610253565b60405161008f9190610b36565b60405180910390f35b6100b260048036038101906100ad9190610c9a565b610259565b005b6100bc61064f565b6040516100c99190610b36565b60405180910390f35b6100ec60048036038101906100e79190610d0f565b610658565b6040516100f99190610b36565b60405180910390f35b60606002805480602002602001604051908101604052809291908181526020016000905b8282101561024a57838290600052602060002090600302016040518060600160405290816000820160009054906101000a900473ffffffffffffffffffffffffffffffffffffffff1673ffffffffffffffffffffffffffffffffffffffff1673ffffffffffffffffffffffffffffffffffffffff168152602001600182015481526020016002820180546101b990610d6b565b80601f01602080910402602001604051908101604052809291908181526020018280546101e590610d6b565b80156102325780601f1061020757610100808354040283529160200191610232565b820191906000526020600020905b81548152906001019060200180831161021557829003601f168201915b50505050508152505081526020019060010190610126565b50505050905090565b60005481565b42610384600360003373ffffffffffffffffffffffffffffffffffffffff1673ffffffffffffffffffffffffffffffffffffffff168152602001908152602001600020546102a79190610dcb565b106102e7576040517f08c379a00000000000000000000000000000000000000000000000000000000081526004016102de90610e5c565b60405180910390fd5b42600360003373ffffffffffffffffffffffffffffffffffffffff1673ffffffffffffffffffffffffffffffffffffffff16815260200190815260200160002081905550600160008082825461033d9190610dcb565b925050819055506103846040518060400160405280600c81526020017f25732073617973202725732700000000000000000000000000000000000000008152503383610709565b600260405180606001604052803373ffffffffffffffffffffffffffffffffffffffff16815260200142815260200183815250908060018154018082558091505060019003906000526020600020906003020160009091909190915060008201518160000160006101000a81548173ffffffffffffffffffffffffffffffffffffffff021916908373ffffffffffffffffffffffffffffffffffffffff1602179055506020820151816001015560408201518160020190816104469190611028565b5050506064600154424461045a9190610dcb565b6104649190610dcb565b61046e9190611129565b6001819055506104b56040518060400160405280601b81526020017f52616e646f6d206e756d6265722067656e6572617465643a20256400000000008152506001546107a8565b601060015410156105fc576104ff6040518060400160405280600781526020017f257320776f6e210000000000000000000000000000000000000000000000000081525033610844565b6000655af3107a400090504781111561054d576040517f08c379a0000000000000000000000000000000000000000000000000000000008152600401610544906111cc565b60405180910390fd5b60003373ffffffffffffffffffffffffffffffffffffffff16826040516105739061121d565b60006040518083038185875af1925050503d80600081146105b0576040519150601f19603f3d011682016040523d82523d6000602084013e6105b5565b606091505b50509050806105f9576040517f08c379a00000000000000000000000000000000000000000000000000000000081526004016105f0906112a4565b60405180910390fd5b50505b3373ffffffffffffffffffffffffffffffffffffffff167f2f5e81a013ce71eff84f708f6a51bcd95a780c7aa4dfa178f1489d6ba1e548db42836040516106449291906112fd565b60405180910390a250565b60008054905090565b60036020528060005260406000206000915090505481565b61070681604051602401610684919061132d565b6040516020818303038152906040527f41304fac000000000000000000000000000000000000000000000000000000007bffffffffffffffffffffffffffffffffffffffffffffffffffffffff19166020820180517bffffffffffffffffffffffffffffffffffffffffffffffffffffffff83818316178352505050506108e0565b50565b6107a38383836040516024016107219392919061135e565b6040516020818303038152906040527fe0e9ad4f000000000000000000000000000000000000000000000000000000007bffffffffffffffffffffffffffffffffffffffffffffffffffffffff19166020820180517bffffffffffffffffffffffffffffffffffffffffffffffffffffffff83818316178352505050506108e0565b505050565b61084082826040516024016107be9291906113a3565b6040516020818303038152906040527fb60e72cc000000000000000000000000000000000000000000000000000000007bffffffffffffffffffffffffffffffffffffffffffffffffffffffff19166020820180517bffffffffffffffffffffffffffffffffffffffffffffffffffffffff83818316178352505050506108e0565b5050565b6108dc828260405160240161085a9291906113d3565b6040516020818303038152906040527f319af333000000000000000000000000000000000000000000000000000000007bffffffffffffffffffffffffffffffffffffffffffffffffffffffff19166020820180517bffffffffffffffffffffffffffffffffffffffffffffffffffffffff83818316178352505050506108e0565b5050565b60008151905060006a636f6e736f6c652e6c6f679050602083016000808483855afa5050505050565b600081519050919050565b600082825260208201905092915050565b6000819050602082019050919050565b600073ffffffffffffffffffffffffffffffffffffffff82169050919050565b600061096082610935565b9050919050565b61097081610955565b82525050565b6000819050919050565b61098981610976565b82525050565b600081519050919050565b600082825260208201905092915050565b60005b838110156109c95780820151818401526020810190506109ae565b60008484015250505050565b6000601f19601f8301169050919050565b60006109f18261098f565b6109fb818561099a565b9350610a0b8185602086016109ab565b610a14816109d5565b840191505092915050565b6000606083016000830151610a376000860182610967565b506020830151610a4a6020860182610980565b5060408301518482036040860152610a6282826109e6565b9150508091505092915050565b6000610a7b8383610a1f565b905092915050565b6000602082019050919050565b6000610a9b82610909565b610aa58185610914565b935083602082028501610ab785610925565b8060005b85811015610af35784840389528151610ad48582610a6f565b9450610adf83610a83565b925060208a01995050600181019050610abb565b50829750879550505050505092915050565b60006020820190508181036000830152610b1f8184610a90565b905092915050565b610b3081610976565b82525050565b6000602082019050610b4b6000830184610b27565b92915050565b6000604051905090565b600080fd5b600080fd5b600080fd5b600080fd5b7f4e487b7100000000000000000000000000000000000000000000000000000000600052604160045260246000fd5b610ba7826109d5565b810181811067ffffffffffffffff82111715610bc657610bc5610b6f565b5b80604052505050565b6000610bd9610b51565b9050610be58282610b9e565b919050565b600067ffffffffffffffff821115610c0557610c04610b6f565b5b610c0e826109d5565b9050602081019050919050565b82818337600083830152505050565b6000610c3d610c3884610bea565b610bcf565b905082815260208101848484011115610c5957610c58610b6a565b5b610c64848285610c1b565b509392505050565b600082601f830112610c8157610c80610b65565b5b8135610c91848260208601610c2a565b91505092915050565b600060208284031215610cb057610caf610b5b565b5b600082013567ffffffffffffffff811115610cce57610ccd610b60565b5b610cda84828501610c6c565b91505092915050565b610cec81610955565b8114610cf757600080fd5b50565b600081359050610d0981610ce3565b92915050565b600060208284031215610d2557610d24610b5b565b5b6000610d3384828501610cfa565b91505092915050565b7f4e487b7100000000000000000000000000000000000000000000000000000000600052602260045260246000fd5b60006002820490506001821680610d8357607f821691505b602082108103610d9657610d95610d3c565b5b50919050565b7f4e487b7100000000000000000000000000000000000000000000000000000000600052601160045260246000fd5b6000610dd682610976565b9150610de183610976565b9250828201905080821115610df957610df8610d9c565b5b92915050565b600082825260208201905092915050565b7f576169742031356d000000000000000000000000000000000000000000000000600082015250565b6000610e46600883610dff565b9150610e5182610e10565b602082019050919050565b60006020820190508181036000830152610e7581610e39565b9050919050565b60008190508160005260206000209050919050565b60006020601f8301049050919050565b600082821b905092915050565b600060088302610ede7fffffffffffffffffffffffffffffffffffffffffffffffffffffffffffffffff82610ea1565b610ee88683610ea1565b95508019841693508086168417925050509392505050565b6000819050919050565b6000610f25610f20610f1b84610976565b610f00565b610976565b9050919050565b6000819050919050565b610f3f83610f0a565b610f53610f4b82610f2c565b848454610eae565b825550505050565b600090565b610f68610f5b565b610f73818484610f36565b505050565b5b81811015610f9757610f8c600082610f60565b600181019050610f79565b5050565b601f821115610fdc57610fad81610e7c565b610fb684610e91565b81016020851015610fc5578190505b610fd9610fd185610e91565b830182610f78565b50505b505050565b600082821c905092915050565b6000610fff60001984600802610fe1565b1980831691505092915050565b60006110188383610fee565b9150826002028217905092915050565b6110318261098f565b67ffffffffffffffff81111561104a57611049610b6f565b5b6110548254610d6b565b61105f828285610f9b565b600060209050601f8311600181146110925760008415611080578287015190505b61108a858261100c565b8655506110f2565b601f1984166110a086610e7c565b60005b828110156110c8578489015182556001820191506020850194506020810190506110a3565b868310156110e557848901516110e1601f891682610fee565b8355505b6001600288020188555050505b505050505050565b7f4e487b7100000000000000000000000000000000000000000000000000000000600052601260045260246000fd5b600061113482610976565b915061113f83610976565b92508261114f5761114e6110fa565b5b828206905092915050565b7f547279696e6720746f207769746864726177206d6f7265206d6f6e657920746860008201527f616e2074686520636f6e7472616374206861732e000000000000000000000000602082015250565b60006111b6603483610dff565b91506111c18261115a565b604082019050919050565b600060208201905081810360008301526111e5816111a9565b9050919050565b600081905092915050565b50565b60006112076000836111ec565b9150611212826111f7565b600082019050919050565b6000611228826111fa565b9150819050919050565b7f4661696c656420746f207769746864726177206d6f6e65792066726f6d20636f60008201527f6e74726163742e00000000000000000000000000000000000000000000000000602082015250565b600061128e602783610dff565b915061129982611232565b604082019050919050565b600060208201905081810360008301526112bd81611281565b9050919050565b60006112cf8261098f565b6112d98185610dff565b93506112e98185602086016109ab565b6112f2816109d5565b840191505092915050565b60006040820190506113126000830185610b27565b818103602083015261132481846112c4565b90509392505050565b6000602082019050818103600083015261134781846112c4565b905092915050565b61135881610955565b82525050565b6000606082019050818103600083015261137881866112c4565b9050611387602083018561134f565b818103604083015261139981846112c4565b9050949350505050565b600060408201905081810360008301526113bd81856112c4565b90506113cc6020830184610b27565b9392505050565b600060408201905081810360008301526113ed81856112c4565b90506113fc602083018461134f565b939250505056fea264697066735822122098ee4d95f2b43523c0ca60bb94409033b68255c1913f0ed8029c5359681ffb0764736f6c63430008110033546865204775657374626f6f6b20636f6e747261637420686173206265656e20636f6e73747275637465642e",
  "linkReferences": {},
  "deployedLinkReferences": {}
}