{
  "_format": "hh-sol-artifact-1",
  "contractName": "Guestbook",
  "sourceName": "contracts/Guestbook.sol",
  "abi": [
    {
      "inputs": [],
      "stateMutability": "payable",
      "type": "constructor"
    },
    {
      "anonymous": false,
      "inputs": [
        {
          "indexed": true,
          "internalType": "address",
          "name": "from",
          "type": "address"
        },
        {
          "indexed": false,
          "internalType": "uint256",
          "name": "timestamp",
          "type": "uint256"
        },
        {
          "indexed": false,
          "internalType": "string",
          "name": "message",
          "type": "string"
        }
      ],
      "name": "NewGuest",
      "type": "event"
    },
    {
      "inputs": [],
      "name": "getGuestCount",
      "outputs": [
        {
          "internalType": "uint256",
          "name": "",
          "type": "uint256"
        }
      ],
      "stateMutability": "view",
      "type": "function"
    },
    {
      "inputs": [],
      "name": "getGuestbook",
      "outputs": [
        {
          "components": [
            {
              "internalType": "address",
              "name": "wallet",
              "type": "address"
            },
            {
              "internalType": "uint256",
              "name": "timestamp",
              "type": "uint256"
            },
            {
              "internalType": "string",
              "name": "message",
              "type": "string"
            }
          ],
          "internalType": "struct Guestbook.Guest[]",
          "name": "",
          "type": "tuple[]"
        }
      ],
      "stateMutability": "view",
      "type": "function"
    },
    {
      "inputs": [],
      "name": "guestCount",
      "outputs": [
        {
          "internalType": "uint256",
          "name": "",
          "type": "uint256"
        }
      ],
      "stateMutability": "view",
      "type": "function"
    },
    {
      "inputs": [
        {
          "internalType": "address",
          "name": "",
          "type": "address"
        }
      ],
      "name": "lastSignedAt",
      "outputs": [
        {
          "internalType": "uint256",
          "name": "",
          "type": "uint256"
        }
      ],
      "stateMutability": "view",
      "type": "function"
    },
    {
      "inputs": [
        {
          "internalType": "string",
          "name": "_message",
          "type": "string"
        }
      ],
      "name": "sign",
      "outputs": [],
      "stateMutability": "nonpayable",
      "type": "function"
    }
  ],
  "bytecode": "0x6080604052620000336040518060600160405280602c81526020016200172e602c91396200005b60201b6200066f1760201c565b6064444262000043919062000160565b6200004f9190620001ca565b600181905550620002c0565b620000fb816040516024016200007291906200029c565b6040516020818303038152906040527f41304fac000000000000000000000000000000000000000000000000000000007bffffffffffffffffffffffffffffffffffffffffffffffffffffffff19166020820180517bffffffffffffffffffffffffffffffffffffffffffffffffffffffff8381831617835250505050620000fe60201b60201c565b50565b60008151905060006a636f6e736f6c652e6c6f679050602083016000808483855afa5050505050565b6000819050919050565b7f4e487b7100000000000000000000000000000000000000000000000000000000600052601160045260246000fd5b60006200016d8262000127565b91506200017a8362000127565b925082820190508082111562000195576200019462000131565b5b92915050565b7f4e487b7100000000000000000000000000000000000000000000000000000000600052601260045260246000fd5b6000620001d78262000127565b9150620001e48362000127565b925082620001f757620001f66200019b565b5b828206905092915050565b600081519050919050565b600082825260208201905092915050565b60005b838110156200023e57808201518184015260208101905062000221565b60008484015250505050565b6000601f19601f8301169050919050565b6000620002688262000202565b6200027481856200020d565b9350620002868185602086016200021e565b62000291816200024a565b840191505092915050565b60006020820190508181036000830152620002b881846200025b565b905092915050565b61145e80620002d06000396000f3fe608060405234801561001057600080fd5b50600436106100575760003560e01c80631e9590fb1461005c57806378b2250f1461007a57806379d6348d1461009857806397203543146100b4578063f11bf557146100d2575b600080fd5b610064610102565b6040516100719190610b04565b60405180910390f35b610082610253565b60405161008f9190610b35565b60405180910390f35b6100b260048036038101906100ad9190610c99565b610259565b005b6100bc61064e565b6040516100c99190610b35565b60405180910390f35b6100ec60048036038101906100e79190610d0e565b610657565b6040516100f99190610b35565b60405180910390f35b60606002805480602002602001604051908101604052809291908181526020016000905b8282101561024a57838290600052602060002090600302016040518060600160405290816000820160009054906101000a900473ffffffffffffffffffffffffffffffffffffffff1673ffffffffffffffffffffffffffffffffffffffff1673ffffffffffffffffffffffffffffffffffffffff168152602001600182015481526020016002820180546101b990610d6a565b80601f01602080910402602001604051908101604052809291908181526020018280546101e590610d6a565b80156102325780601f1061020757610100808354040283529160200191610232565b820191906000526020600020905b81548152906001019060200180831161021557829003601f168201915b50505050508152505081526020019060010190610126565b50505050905090565b60005481565b42600f600360003373ffffffffffffffffffffffffffffffffffffffff1673ffffffffffffffffffffffffffffffffffffffff168152602001908152602001600020546102a69190610dca565b106102e6576040517f08c379a00000000000000000000000000000000000000000000000000000000081526004016102dd90610e81565b60405180910390fd5b42600360003373ffffffffffffffffffffffffffffffffffffffff1673ffffffffffffffffffffffffffffffffffffffff16815260200190815260200160002081905550600160008082825461033c9190610dca565b925050819055506103836040518060400160405280600c81526020017f25732073617973202725732700000000000000000000000000000000000000008152503383610708565b600260405180606001604052803373ffffffffffffffffffffffffffffffffffffffff16815260200142815260200183815250908060018154018082558091505060019003906000526020600020906003020160009091909190915060008201518160000160006101000a81548173ffffffffffffffffffffffffffffffffffffffff021916908373ffffffffffffffffffffffffffffffffffffffff160217905550602082015181600101556040820151816002019081610445919061104d565b505050606460015442446104599190610dca565b6104639190610dca565b61046d919061114e565b6001819055506104b46040518060400160405280601b81526020017f52616e646f6d206e756d6265722067656e6572617465643a20256400000000008152506001546107a7565b603260015410156105fb576104fe6040518060400160405280600781526020017f257320776f6e210000000000000000000000000000000000000000000000000081525033610843565b6000655af3107a400090504781111561054c576040517f08c379a0000000000000000000000000000000000000000000000000000000008152600401610543906111f1565b60405180910390fd5b60003373ffffffffffffffffffffffffffffffffffffffff168260405161057290611242565b60006040518083038185875af1925050503d80600081146105af576040519150601f19603f3d011682016040523d82523d6000602084013e6105b4565b606091505b50509050806105f8576040517f08c379a00000000000000000000000000000000000000000000000000000000081526004016105ef906112c9565b60405180910390fd5b50505b3373ffffffffffffffffffffffffffffffffffffffff167f2f5e81a013ce71eff84f708f6a51bcd95a780c7aa4dfa178f1489d6ba1e548db4283604051610643929190611322565b60405180910390a250565b60008054905090565b60036020528060005260406000206000915090505481565b610705816040516024016106839190611352565b6040516020818303038152906040527f41304fac000000000000000000000000000000000000000000000000000000007bffffffffffffffffffffffffffffffffffffffffffffffffffffffff19166020820180517bffffffffffffffffffffffffffffffffffffffffffffffffffffffff83818316178352505050506108df565b50565b6107a283838360405160240161072093929190611383565b6040516020818303038152906040527fe0e9ad4f000000000000000000000000000000000000000000000000000000007bffffffffffffffffffffffffffffffffffffffffffffffffffffffff19166020820180517bffffffffffffffffffffffffffffffffffffffffffffffffffffffff83818316178352505050506108df565b505050565b61083f82826040516024016107bd9291906113c8565b6040516020818303038152906040527fb60e72cc000000000000000000000000000000000000000000000000000000007bffffffffffffffffffffffffffffffffffffffffffffffffffffffff19166020820180517bffffffffffffffffffffffffffffffffffffffffffffffffffffffff83818316178352505050506108df565b5050565b6108db82826040516024016108599291906113f8565b6040516020818303038152906040527f319af333000000000000000000000000000000000000000000000000000000007bffffffffffffffffffffffffffffffffffffffffffffffffffffffff19166020820180517bffffffffffffffffffffffffffffffffffffffffffffffffffffffff83818316178352505050506108df565b5050565b60008151905060006a636f6e736f6c652e6c6f679050602083016000808483855afa5050505050565b600081519050919050565b600082825260208201905092915050565b6000819050602082019050919050565b600073ffffffffffffffffffffffffffffffffffffffff82169050919050565b600061095f82610934565b9050919050565b61096f81610954565b82525050565b6000819050919050565b61098881610975565b82525050565b600081519050919050565b600082825260208201905092915050565b60005b838110156109c85780820151818401526020810190506109ad565b60008484015250505050565b6000601f19601f8301169050919050565b60006109f08261098e565b6109fa8185610999565b9350610a0a8185602086016109aa565b610a13816109d4565b840191505092915050565b6000606083016000830151610a366000860182610966565b506020830151610a49602086018261097f565b5060408301518482036040860152610a6182826109e5565b9150508091505092915050565b6000610a7a8383610a1e565b905092915050565b6000602082019050919050565b6000610a9a82610908565b610aa48185610913565b935083602082028501610ab685610924565b8060005b85811015610af25784840389528151610ad38582610a6e565b9450610ade83610a82565b925060208a01995050600181019050610aba565b50829750879550505050505092915050565b60006020820190508181036000830152610b1e8184610a8f565b905092915050565b610b2f81610975565b82525050565b6000602082019050610b4a6000830184610b26565b92915050565b6000604051905090565b600080fd5b600080fd5b600080fd5b600080fd5b7f4e487b7100000000000000000000000000000000000000000000000000000000600052604160045260246000fd5b610ba6826109d4565b810181811067ffffffffffffffff82111715610bc557610bc4610b6e565b5b80604052505050565b6000610bd8610b50565b9050610be48282610b9d565b919050565b600067ffffffffffffffff821115610c0457610c03610b6e565b5b610c0d826109d4565b9050602081019050919050565b82818337600083830152505050565b6000610c3c610c3784610be9565b610bce565b905082815260208101848484011115610c5857610c57610b69565b5b610c63848285610c1a565b509392505050565b600082601f830112610c8057610c7f610b64565b5b8135610c90848260208601610c29565b91505092915050565b600060208284031215610caf57610cae610b5a565b5b600082013567ffffffffffffffff811115610ccd57610ccc610b5f565b5b610cd984828501610c6b565b91505092915050565b610ceb81610954565b8114610cf657600080fd5b50565b600081359050610d0881610ce2565b92915050565b600060208284031215610d2457610d23610b5a565b5b6000610d3284828501610cf9565b91505092915050565b7f4e487b7100000000000000000000000000000000000000000000000000000000600052602260045260246000fd5b60006002820490506001821680610d8257607f821691505b602082108103610d9557610d94610d3b565b5b50919050565b7f4e487b7100000000000000000000000000000000000000000000000000000000600052601160045260246000fd5b6000610dd582610975565b9150610de083610975565b9250828201905080821115610df857610df7610d9b565b5b92915050565b600082825260208201905092915050565b7f596f752063616e206f6e6c79207369676e20746865206775657374626f6f6b2060008201527f6f6e6365206576657279203135207365636f6e64732100000000000000000000602082015250565b6000610e6b603683610dfe565b9150610e7682610e0f565b604082019050919050565b60006020820190508181036000830152610e9a81610e5e565b9050919050565b60008190508160005260206000209050919050565b60006020601f8301049050919050565b600082821b905092915050565b600060088302610f037fffffffffffffffffffffffffffffffffffffffffffffffffffffffffffffffff82610ec6565b610f0d8683610ec6565b95508019841693508086168417925050509392505050565b6000819050919050565b6000610f4a610f45610f4084610975565b610f25565b610975565b9050919050565b6000819050919050565b610f6483610f2f565b610f78610f7082610f51565b848454610ed3565b825550505050565b600090565b610f8d610f80565b610f98818484610f5b565b505050565b5b81811015610fbc57610fb1600082610f85565b600181019050610f9e565b5050565b601f82111561100157610fd281610ea1565b610fdb84610eb6565b81016020851015610fea578190505b610ffe610ff685610eb6565b830182610f9d565b50505b505050565b600082821c905092915050565b600061102460001984600802611006565b1980831691505092915050565b600061103d8383611013565b9150826002028217905092915050565b6110568261098e565b67ffffffffffffffff81111561106f5761106e610b6e565b5b6110798254610d6a565b611084828285610fc0565b600060209050601f8311600181146110b757600084156110a5578287015190505b6110af8582611031565b865550611117565b601f1984166110c586610ea1565b60005b828110156110ed578489015182556001820191506020850194506020810190506110c8565b8683101561110a5784890151611106601f891682611013565b8355505b6001600288020188555050505b505050505050565b7f4e487b7100000000000000000000000000000000000000000000000000000000600052601260045260246000fd5b600061115982610975565b915061116483610975565b9250826111745761117361111f565b5b828206905092915050565b7f547279696e6720746f207769746864726177206d6f7265206d6f6e657920746860008201527f616e2074686520636f6e7472616374206861732e000000000000000000000000602082015250565b60006111db603483610dfe565b91506111e68261117f565b604082019050919050565b6000602082019050818103600083015261120a816111ce565b9050919050565b600081905092915050565b50565b600061122c600083611211565b91506112378261121c565b600082019050919050565b600061124d8261121f565b9150819050919050565b7f4661696c656420746f207769746864726177206d6f6e65792066726f6d20636f60008201527f6e74726163742e00000000000000000000000000000000000000000000000000602082015250565b60006112b3602783610dfe565b91506112be82611257565b604082019050919050565b600060208201905081810360008301526112e2816112a6565b9050919050565b60006112f48261098e565b6112fe8185610dfe565b935061130e8185602086016109aa565b611317816109d4565b840191505092915050565b60006040820190506113376000830185610b26565b818103602083015261134981846112e9565b90509392505050565b6000602082019050818103600083015261136c81846112e9565b905092915050565b61137d81610954565b82525050565b6000606082019050818103600083015261139d81866112e9565b90506113ac6020830185611374565b81810360408301526113be81846112e9565b9050949350505050565b600060408201905081810360008301526113e281856112e9565b90506113f16020830184610b26565b9392505050565b6000604082019050818103600083015261141281856112e9565b90506114216020830184611374565b939250505056fea26469706673582212207f6ec63048e25e58e9fd4a176267820369e2ff2e67bf265184dcb79c6c2ee3af64736f6c63430008110033546865204775657374626f6f6b20636f6e747261637420686173206265656e20636f6e73747275637465642e",
  "linkReferences": {},
  "deployedLinkReferences": {}
}