{
  "_format": "hh-sol-artifact-1",
  "contractName": "Guestbook",
  "sourceName": "contracts/Guestbook.sol",
  "abi": [
    {
      "inputs": [],
      "stateMutability": "nonpayable",
      "type": "constructor"
    },
    {
      "anonymous": false,
      "inputs": [
        {
          "indexed": true,
          "internalType": "address",
          "name": "from",
          "type": "address"
        },
        {
          "indexed": false,
          "internalType": "uint256",
          "name": "timestamp",
          "type": "uint256"
        },
        {
          "indexed": false,
          "internalType": "string",
          "name": "message",
          "type": "string"
        }
      ],
      "name": "NewGuest",
      "type": "event"
    },
    {
      "inputs": [],
      "name": "getGuestCount",
      "outputs": [
        {
          "internalType": "uint256",
          "name": "",
          "type": "uint256"
        }
      ],
      "stateMutability": "view",
      "type": "function"
    },
    {
      "inputs": [],
      "name": "getGuestbook",
      "outputs": [
        {
          "components": [
            {
              "internalType": "address",
              "name": "wallet",
              "type": "address"
            },
            {
              "internalType": "uint256",
              "name": "timestamp",
              "type": "uint256"
            },
            {
              "internalType": "string",
              "name": "message",
              "type": "string"
            }
          ],
          "internalType": "struct Guestbook.Guest[]",
          "name": "",
          "type": "tuple[]"
        }
      ],
      "stateMutability": "view",
      "type": "function"
    },
    {
      "inputs": [],
      "name": "guestCount",
      "outputs": [
        {
          "internalType": "uint256",
          "name": "",
          "type": "uint256"
        }
      ],
      "stateMutability": "view",
      "type": "function"
    },
    {
      "inputs": [
        {
          "internalType": "string",
          "name": "_message",
          "type": "string"
        }
      ],
      "name": "sign",
      "outputs": [],
      "stateMutability": "nonpayable",
      "type": "function"
    }
  ],
  "bytecode": "0x60806040523480156200001157600080fd5b506200005d6040518060400160405280601981526020017f57656c636f6d6520746f20746865204775657374626f6f6b2e000000000000008152506200006360201b620003da1760201c565b620001ed565b62000103816040516024016200007a9190620001c9565b6040516020818303038152906040527f41304fac000000000000000000000000000000000000000000000000000000007bffffffffffffffffffffffffffffffffffffffffffffffffffffffff19166020820180517bffffffffffffffffffffffffffffffffffffffffffffffffffffffff83818316178352505050506200010660201b60201c565b50565b60008151905060006a636f6e736f6c652e6c6f679050602083016000808483855afa5050505050565b600081519050919050565b600082825260208201905092915050565b60005b838110156200016b5780820151818401526020810190506200014e565b60008484015250505050565b6000601f19601f8301169050919050565b600062000195826200012f565b620001a181856200013a565b9350620001b38185602086016200014b565b620001be8162000177565b840191505092915050565b60006020820190508181036000830152620001e5818462000188565b905092915050565b610e4880620001fd6000396000f3fe608060405234801561001057600080fd5b506004361061004c5760003560e01c80631e9590fb1461005157806378b2250f1461006f57806379d6348d1461008d57806397203543146100a9575b600080fd5b6100596100c7565b60405161006691906107d3565b60405180910390f35b610077610218565b6040516100849190610804565b60405180910390f35b6100a760048036038101906100a29190610968565b61021e565b005b6100b161038f565b6040516100be9190610804565b60405180910390f35b60606000805480602002602001604051908101604052809291908181526020016000905b8282101561020f57838290600052602060002090600302016040518060600160405290816000820160009054906101000a900473ffffffffffffffffffffffffffffffffffffffff1673ffffffffffffffffffffffffffffffffffffffff1673ffffffffffffffffffffffffffffffffffffffff1681526020016001820154815260200160028201805461017e906109e0565b80601f01602080910402602001604051908101604052809291908181526020018280546101aa906109e0565b80156101f75780601f106101cc576101008083540402835291602001916101f7565b820191906000526020600020905b8154815290600101906020018083116101da57829003601f168201915b505050505081525050815260200190600101906100eb565b50505050905090565b60015481565b60018060008282546102309190610a40565b925050819055506102776040518060400160405280600c81526020017f25732073617973202725732700000000000000000000000000000000000000008152503383610473565b600060405180606001604052803373ffffffffffffffffffffffffffffffffffffffff16815260200142815260200183815250908060018154018082558091505060019003906000526020600020906003020160009091909190915060008201518160000160006101000a81548173ffffffffffffffffffffffffffffffffffffffff021916908373ffffffffffffffffffffffffffffffffffffffff1602179055506020820151816001015560408201518160020190816103399190610c20565b5050503373ffffffffffffffffffffffffffffffffffffffff167f2f5e81a013ce71eff84f708f6a51bcd95a780c7aa4dfa178f1489d6ba1e548db4283604051610384929190610d3c565b60405180910390a250565b60006103d26040518060400160405280601881526020017f5765206861766520256420746f74616c20677565737473210000000000000000815250600154610512565b600154905090565b610470816040516024016103ee9190610d6c565b6040516020818303038152906040527f41304fac000000000000000000000000000000000000000000000000000000007bffffffffffffffffffffffffffffffffffffffffffffffffffffffff19166020820180517bffffffffffffffffffffffffffffffffffffffffffffffffffffffff83818316178352505050506105ae565b50565b61050d83838360405160240161048b93929190610d9d565b6040516020818303038152906040527fe0e9ad4f000000000000000000000000000000000000000000000000000000007bffffffffffffffffffffffffffffffffffffffffffffffffffffffff19166020820180517bffffffffffffffffffffffffffffffffffffffffffffffffffffffff83818316178352505050506105ae565b505050565b6105aa8282604051602401610528929190610de2565b6040516020818303038152906040527fb60e72cc000000000000000000000000000000000000000000000000000000007bffffffffffffffffffffffffffffffffffffffffffffffffffffffff19166020820180517bffffffffffffffffffffffffffffffffffffffffffffffffffffffff83818316178352505050506105ae565b5050565b60008151905060006a636f6e736f6c652e6c6f679050602083016000808483855afa5050505050565b600081519050919050565b600082825260208201905092915050565b6000819050602082019050919050565b600073ffffffffffffffffffffffffffffffffffffffff82169050919050565b600061062e82610603565b9050919050565b61063e81610623565b82525050565b6000819050919050565b61065781610644565b82525050565b600081519050919050565b600082825260208201905092915050565b60005b8381101561069757808201518184015260208101905061067c565b60008484015250505050565b6000601f19601f8301169050919050565b60006106bf8261065d565b6106c98185610668565b93506106d9818560208601610679565b6106e2816106a3565b840191505092915050565b60006060830160008301516107056000860182610635565b506020830151610718602086018261064e565b506040830151848203604086015261073082826106b4565b9150508091505092915050565b600061074983836106ed565b905092915050565b6000602082019050919050565b6000610769826105d7565b61077381856105e2565b935083602082028501610785856105f3565b8060005b858110156107c157848403895281516107a2858261073d565b94506107ad83610751565b925060208a01995050600181019050610789565b50829750879550505050505092915050565b600060208201905081810360008301526107ed818461075e565b905092915050565b6107fe81610644565b82525050565b600060208201905061081960008301846107f5565b92915050565b6000604051905090565b600080fd5b600080fd5b600080fd5b600080fd5b7f4e487b7100000000000000000000000000000000000000000000000000000000600052604160045260246000fd5b610875826106a3565b810181811067ffffffffffffffff821117156108945761089361083d565b5b80604052505050565b60006108a761081f565b90506108b3828261086c565b919050565b600067ffffffffffffffff8211156108d3576108d261083d565b5b6108dc826106a3565b9050602081019050919050565b82818337600083830152505050565b600061090b610906846108b8565b61089d565b90508281526020810184848401111561092757610926610838565b5b6109328482856108e9565b509392505050565b600082601f83011261094f5761094e610833565b5b813561095f8482602086016108f8565b91505092915050565b60006020828403121561097e5761097d610829565b5b600082013567ffffffffffffffff81111561099c5761099b61082e565b5b6109a88482850161093a565b91505092915050565b7f4e487b7100000000000000000000000000000000000000000000000000000000600052602260045260246000fd5b600060028204905060018216806109f857607f821691505b602082108103610a0b57610a0a6109b1565b5b50919050565b7f4e487b7100000000000000000000000000000000000000000000000000000000600052601160045260246000fd5b6000610a4b82610644565b9150610a5683610644565b9250828201905080821115610a6e57610a6d610a11565b5b92915050565b60008190508160005260206000209050919050565b60006020601f8301049050919050565b600082821b905092915050565b600060088302610ad67fffffffffffffffffffffffffffffffffffffffffffffffffffffffffffffffff82610a99565b610ae08683610a99565b95508019841693508086168417925050509392505050565b6000819050919050565b6000610b1d610b18610b1384610644565b610af8565b610644565b9050919050565b6000819050919050565b610b3783610b02565b610b4b610b4382610b24565b848454610aa6565b825550505050565b600090565b610b60610b53565b610b6b818484610b2e565b505050565b5b81811015610b8f57610b84600082610b58565b600181019050610b71565b5050565b601f821115610bd457610ba581610a74565b610bae84610a89565b81016020851015610bbd578190505b610bd1610bc985610a89565b830182610b70565b50505b505050565b600082821c905092915050565b6000610bf760001984600802610bd9565b1980831691505092915050565b6000610c108383610be6565b9150826002028217905092915050565b610c298261065d565b67ffffffffffffffff811115610c4257610c4161083d565b5b610c4c82546109e0565b610c57828285610b93565b600060209050601f831160018114610c8a5760008415610c78578287015190505b610c828582610c04565b865550610cea565b601f198416610c9886610a74565b60005b82811015610cc057848901518255600182019150602085019450602081019050610c9b565b86831015610cdd5784890151610cd9601f891682610be6565b8355505b6001600288020188555050505b505050505050565b600082825260208201905092915050565b6000610d0e8261065d565b610d188185610cf2565b9350610d28818560208601610679565b610d31816106a3565b840191505092915050565b6000604082019050610d5160008301856107f5565b8181036020830152610d638184610d03565b90509392505050565b60006020820190508181036000830152610d868184610d03565b905092915050565b610d9781610623565b82525050565b60006060820190508181036000830152610db78186610d03565b9050610dc66020830185610d8e565b8181036040830152610dd88184610d03565b9050949350505050565b60006040820190508181036000830152610dfc8185610d03565b9050610e0b60208301846107f5565b939250505056fea2646970667358221220478b03d3080f26af45c976a602b2c3d06d516ebbc826bb88954f6a9bf9da037164736f6c63430008110033",
  "linkReferences": {},
  "deployedLinkReferences": {}
}