{
  "_format": "hh-sol-artifact-1",
  "contractName": "Guestbook",
  "sourceName": "contracts/Guestbook.sol",
  "abi": [
    {
      "inputs": [],
      "stateMutability": "payable",
      "type": "constructor"
    },
    {
      "anonymous": false,
      "inputs": [
        {
          "indexed": true,
          "internalType": "address",
          "name": "from",
          "type": "address"
        },
        {
          "indexed": false,
          "internalType": "uint256",
          "name": "timestamp",
          "type": "uint256"
        },
        {
          "indexed": false,
          "internalType": "string",
          "name": "message",
          "type": "string"
        }
      ],
      "name": "NewGuest",
      "type": "event"
    },
    {
      "inputs": [],
      "name": "getGuestCount",
      "outputs": [
        {
          "internalType": "uint256",
          "name": "",
          "type": "uint256"
        }
      ],
      "stateMutability": "view",
      "type": "function"
    },
    {
      "inputs": [],
      "name": "getGuestbook",
      "outputs": [
        {
          "components": [
            {
              "internalType": "address",
              "name": "wallet",
              "type": "address"
            },
            {
              "internalType": "uint256",
              "name": "timestamp",
              "type": "uint256"
            },
            {
              "internalType": "string",
              "name": "message",
              "type": "string"
            }
          ],
          "internalType": "struct Guestbook.Guest[]",
          "name": "",
          "type": "tuple[]"
        }
      ],
      "stateMutability": "view",
      "type": "function"
    },
    {
      "inputs": [],
      "name": "guestCount",
      "outputs": [
        {
          "internalType": "uint256",
          "name": "",
          "type": "uint256"
        }
      ],
      "stateMutability": "view",
      "type": "function"
    },
    {
      "inputs": [
        {
          "internalType": "string",
          "name": "_message",
          "type": "string"
        }
      ],
      "name": "sign",
      "outputs": [],
      "stateMutability": "nonpayable",
      "type": "function"
    }
  ],
  "bytecode": "0x6080604052620000336040518060600160405280602c815260200162001281602c91396200003960201b620004d61760201c565b620001c3565b620000d9816040516024016200005091906200019f565b6040516020818303038152906040527f41304fac000000000000000000000000000000000000000000000000000000007bffffffffffffffffffffffffffffffffffffffffffffffffffffffff19166020820180517bffffffffffffffffffffffffffffffffffffffffffffffffffffffff8381831617835250505050620000dc60201b60201c565b50565b60008151905060006a636f6e736f6c652e6c6f679050602083016000808483855afa5050505050565b600081519050919050565b600082825260208201905092915050565b60005b838110156200014157808201518184015260208101905062000124565b60008484015250505050565b6000601f19601f8301169050919050565b60006200016b8262000105565b62000177818562000110565b93506200018981856020860162000121565b62000194816200014d565b840191505092915050565b60006020820190508181036000830152620001bb81846200015e565b905092915050565b6110ae80620001d36000396000f3fe608060405234801561001057600080fd5b506004361061004c5760003560e01c80631e9590fb1461005157806378b2250f1461006f57806379d6348d1461008d57806397203543146100a9575b600080fd5b6100596100c7565b60405161006691906108cf565b60405180910390f35b610077610218565b6040516100849190610900565b60405180910390f35b6100a760048036038101906100a29190610a64565b61021e565b005b6100b161048b565b6040516100be9190610900565b60405180910390f35b60606000805480602002602001604051908101604052809291908181526020016000905b8282101561020f57838290600052602060002090600302016040518060600160405290816000820160009054906101000a900473ffffffffffffffffffffffffffffffffffffffff1673ffffffffffffffffffffffffffffffffffffffff1673ffffffffffffffffffffffffffffffffffffffff1681526020016001820154815260200160028201805461017e90610adc565b80601f01602080910402602001604051908101604052809291908181526020018280546101aa90610adc565b80156101f75780601f106101cc576101008083540402835291602001916101f7565b820191906000526020600020905b8154815290600101906020018083116101da57829003601f168201915b505050505081525050815260200190600101906100eb565b50505050905090565b60015481565b60018060008282546102309190610b3c565b925050819055506102776040518060400160405280600c81526020017f2573207361797320272573270000000000000000000000000000000000000000815250338361056f565b600060405180606001604052803373ffffffffffffffffffffffffffffffffffffffff16815260200142815260200183815250908060018154018082558091505060019003906000526020600020906003020160009091909190915060008201518160000160006101000a81548173ffffffffffffffffffffffffffffffffffffffff021916908373ffffffffffffffffffffffffffffffffffffffff1602179055506020820151816001015560408201518160020190816103399190610d1c565b5050503373ffffffffffffffffffffffffffffffffffffffff167f2f5e81a013ce71eff84f708f6a51bcd95a780c7aa4dfa178f1489d6ba1e548db4283604051610384929190610e38565b60405180910390a26000655af3107a40009050478111156103da576040517f08c379a00000000000000000000000000000000000000000000000000000000081526004016103d190610eda565b60405180910390fd5b60003373ffffffffffffffffffffffffffffffffffffffff168260405161040090610f2b565b60006040518083038185875af1925050503d806000811461043d576040519150601f19603f3d011682016040523d82523d6000602084013e610442565b606091505b5050905080610486576040517f08c379a000000000000000000000000000000000000000000000000000000000815260040161047d90610fb2565b60405180910390fd5b505050565b60006104ce6040518060400160405280601881526020017f5765206861766520256420746f74616c2067756573747321000000000000000081525060015461060e565b600154905090565b61056c816040516024016104ea9190610fd2565b6040516020818303038152906040527f41304fac000000000000000000000000000000000000000000000000000000007bffffffffffffffffffffffffffffffffffffffffffffffffffffffff19166020820180517bffffffffffffffffffffffffffffffffffffffffffffffffffffffff83818316178352505050506106aa565b50565b61060983838360405160240161058793929190611003565b6040516020818303038152906040527fe0e9ad4f000000000000000000000000000000000000000000000000000000007bffffffffffffffffffffffffffffffffffffffffffffffffffffffff19166020820180517bffffffffffffffffffffffffffffffffffffffffffffffffffffffff83818316178352505050506106aa565b505050565b6106a68282604051602401610624929190611048565b6040516020818303038152906040527fb60e72cc000000000000000000000000000000000000000000000000000000007bffffffffffffffffffffffffffffffffffffffffffffffffffffffff19166020820180517bffffffffffffffffffffffffffffffffffffffffffffffffffffffff83818316178352505050506106aa565b5050565b60008151905060006a636f6e736f6c652e6c6f679050602083016000808483855afa5050505050565b600081519050919050565b600082825260208201905092915050565b6000819050602082019050919050565b600073ffffffffffffffffffffffffffffffffffffffff82169050919050565b600061072a826106ff565b9050919050565b61073a8161071f565b82525050565b6000819050919050565b61075381610740565b82525050565b600081519050919050565b600082825260208201905092915050565b60005b83811015610793578082015181840152602081019050610778565b60008484015250505050565b6000601f19601f8301169050919050565b60006107bb82610759565b6107c58185610764565b93506107d5818560208601610775565b6107de8161079f565b840191505092915050565b60006060830160008301516108016000860182610731565b506020830151610814602086018261074a565b506040830151848203604086015261082c82826107b0565b9150508091505092915050565b600061084583836107e9565b905092915050565b6000602082019050919050565b6000610865826106d3565b61086f81856106de565b935083602082028501610881856106ef565b8060005b858110156108bd578484038952815161089e8582610839565b94506108a98361084d565b925060208a01995050600181019050610885565b50829750879550505050505092915050565b600060208201905081810360008301526108e9818461085a565b905092915050565b6108fa81610740565b82525050565b600060208201905061091560008301846108f1565b92915050565b6000604051905090565b600080fd5b600080fd5b600080fd5b600080fd5b7f4e487b7100000000000000000000000000000000000000000000000000000000600052604160045260246000fd5b6109718261079f565b810181811067ffffffffffffffff821117156109905761098f610939565b5b80604052505050565b60006109a361091b565b90506109af8282610968565b919050565b600067ffffffffffffffff8211156109cf576109ce610939565b5b6109d88261079f565b9050602081019050919050565b82818337600083830152505050565b6000610a07610a02846109b4565b610999565b905082815260208101848484011115610a2357610a22610934565b5b610a2e8482856109e5565b509392505050565b600082601f830112610a4b57610a4a61092f565b5b8135610a5b8482602086016109f4565b91505092915050565b600060208284031215610a7a57610a79610925565b5b600082013567ffffffffffffffff811115610a9857610a9761092a565b5b610aa484828501610a36565b91505092915050565b7f4e487b7100000000000000000000000000000000000000000000000000000000600052602260045260246000fd5b60006002820490506001821680610af457607f821691505b602082108103610b0757610b06610aad565b5b50919050565b7f4e487b7100000000000000000000000000000000000000000000000000000000600052601160045260246000fd5b6000610b4782610740565b9150610b5283610740565b9250828201905080821115610b6a57610b69610b0d565b5b92915050565b60008190508160005260206000209050919050565b60006020601f8301049050919050565b600082821b905092915050565b600060088302610bd27fffffffffffffffffffffffffffffffffffffffffffffffffffffffffffffffff82610b95565b610bdc8683610b95565b95508019841693508086168417925050509392505050565b6000819050919050565b6000610c19610c14610c0f84610740565b610bf4565b610740565b9050919050565b6000819050919050565b610c3383610bfe565b610c47610c3f82610c20565b848454610ba2565b825550505050565b600090565b610c5c610c4f565b610c67818484610c2a565b505050565b5b81811015610c8b57610c80600082610c54565b600181019050610c6d565b5050565b601f821115610cd057610ca181610b70565b610caa84610b85565b81016020851015610cb9578190505b610ccd610cc585610b85565b830182610c6c565b50505b505050565b600082821c905092915050565b6000610cf360001984600802610cd5565b1980831691505092915050565b6000610d0c8383610ce2565b9150826002028217905092915050565b610d2582610759565b67ffffffffffffffff811115610d3e57610d3d610939565b5b610d488254610adc565b610d53828285610c8f565b600060209050601f831160018114610d865760008415610d74578287015190505b610d7e8582610d00565b865550610de6565b601f198416610d9486610b70565b60005b82811015610dbc57848901518255600182019150602085019450602081019050610d97565b86831015610dd95784890151610dd5601f891682610ce2565b8355505b6001600288020188555050505b505050505050565b600082825260208201905092915050565b6000610e0a82610759565b610e148185610dee565b9350610e24818560208601610775565b610e2d8161079f565b840191505092915050565b6000604082019050610e4d60008301856108f1565b8181036020830152610e5f8184610dff565b90509392505050565b7f547279696e6720746f207769746864726177206d6f7265206d6f6e657920746860008201527f616e2074686520636f6e7472616374206861732e000000000000000000000000602082015250565b6000610ec4603483610dee565b9150610ecf82610e68565b604082019050919050565b60006020820190508181036000830152610ef381610eb7565b9050919050565b600081905092915050565b50565b6000610f15600083610efa565b9150610f2082610f05565b600082019050919050565b6000610f3682610f08565b9150819050919050565b7f4661696c656420746f207769746864726177206d6f6e65792066726f6d20636f60008201527f6e74726163742e00000000000000000000000000000000000000000000000000602082015250565b6000610f9c602783610dee565b9150610fa782610f40565b604082019050919050565b60006020820190508181036000830152610fcb81610f8f565b9050919050565b60006020820190508181036000830152610fec8184610dff565b905092915050565b610ffd8161071f565b82525050565b6000606082019050818103600083015261101d8186610dff565b905061102c6020830185610ff4565b818103604083015261103e8184610dff565b9050949350505050565b600060408201905081810360008301526110628185610dff565b905061107160208301846108f1565b939250505056fea2646970667358221220e1e87daeb9311ae2bed5300c2ef694552bf9afe4b8d915d30d2374ab77832e4764736f6c63430008110033546865204775657374626f6f6b20636f6e747261637420686173206265656e20636f6e73747275637465642e",
  "linkReferences": {},
  "deployedLinkReferences": {}
}