{
  "_format": "hh-sol-artifact-1",
  "contractName": "Guestbook",
  "sourceName": "contracts/Guestbook.sol",
  "abi": [
    {
      "inputs": [],
      "stateMutability": "nonpayable",
      "type": "constructor"
    },
    {
      "anonymous": false,
      "inputs": [
        {
          "indexed": true,
          "internalType": "uint256",
          "name": "_id",
          "type": "uint256"
        }
      ],
      "name": "guestEvent",
      "type": "event"
    },
    {
      "inputs": [
        {
          "internalType": "uint256",
          "name": "_id",
          "type": "uint256"
        }
      ],
      "name": "getGuest",
      "outputs": [
        {
          "components": [
            {
              "internalType": "uint256",
              "name": "id",
              "type": "uint256"
            },
            {
              "internalType": "address",
              "name": "wallet",
              "type": "address"
            },
            {
              "internalType": "string",
              "name": "message",
              "type": "string"
            },
            {
              "internalType": "bool",
              "name": "signed",
              "type": "bool"
            }
          ],
          "internalType": "struct Guestbook.Guest",
          "name": "",
          "type": "tuple"
        }
      ],
      "stateMutability": "view",
      "type": "function"
    },
    {
      "inputs": [],
      "name": "getGuestCount",
      "outputs": [
        {
          "internalType": "uint256",
          "name": "",
          "type": "uint256"
        }
      ],
      "stateMutability": "view",
      "type": "function"
    },
    {
      "inputs": [],
      "name": "getGuests",
      "outputs": [
        {
          "components": [
            {
              "internalType": "uint256",
              "name": "id",
              "type": "uint256"
            },
            {
              "internalType": "address",
              "name": "wallet",
              "type": "address"
            },
            {
              "internalType": "string",
              "name": "message",
              "type": "string"
            },
            {
              "internalType": "bool",
              "name": "signed",
              "type": "bool"
            }
          ],
          "internalType": "struct Guestbook.Guest[]",
          "name": "",
          "type": "tuple[]"
        }
      ],
      "stateMutability": "view",
      "type": "function"
    },
    {
      "inputs": [],
      "name": "guestCount",
      "outputs": [
        {
          "internalType": "uint256",
          "name": "",
          "type": "uint256"
        }
      ],
      "stateMutability": "view",
      "type": "function"
    },
    {
      "inputs": [
        {
          "internalType": "uint256",
          "name": "",
          "type": "uint256"
        }
      ],
      "name": "guestbook",
      "outputs": [
        {
          "internalType": "uint256",
          "name": "id",
          "type": "uint256"
        },
        {
          "internalType": "address",
          "name": "wallet",
          "type": "address"
        },
        {
          "internalType": "string",
          "name": "message",
          "type": "string"
        },
        {
          "internalType": "bool",
          "name": "signed",
          "type": "bool"
        }
      ],
      "stateMutability": "view",
      "type": "function"
    },
    {
      "inputs": [
        {
          "internalType": "string",
          "name": "_message",
          "type": "string"
        }
      ],
      "name": "sign",
      "outputs": [],
      "stateMutability": "nonpayable",
      "type": "function"
    }
  ],
  "bytecode": "0x60806040523480156200001157600080fd5b506200005d6040518060400160405280601981526020017f57656c636f6d6520746f20746865204775657374626f6f6b2e000000000000008152506200006360201b620006b51760201c565b620001ed565b62000103816040516024016200007a9190620001c9565b6040516020818303038152906040527f41304fac000000000000000000000000000000000000000000000000000000007bffffffffffffffffffffffffffffffffffffffffffffffffffffffff19166020820180517bffffffffffffffffffffffffffffffffffffffffffffffffffffffff83818316178352505050506200010660201b60201c565b50565b60008151905060006a636f6e736f6c652e6c6f679050602083016000808483855afa5050505050565b600081519050919050565b600082825260208201905092915050565b60005b838110156200016b5780820151818401526020810190506200014e565b60008484015250505050565b6000601f19601f8301169050919050565b600062000195826200012f565b620001a181856200013a565b9350620001b38185602086016200014b565b620001be8162000177565b840191505092915050565b60006020820190508181036000830152620001e5818462000188565b905092915050565b6112c580620001fd6000396000f3fe608060405234801561001057600080fd5b50600436106100625760003560e01c806320c7f9781461006757806329c95c101461009757806378b2250f146100ca57806379d6348d146100e85780639720354314610104578063e721c0a514610122575b600080fd5b610081600480360381019061007c9190610939565b610140565b60405161008e9190610ac4565b60405180910390f35b6100b160048036038101906100ac9190610939565b610279565b6040516100c19493929190610b5d565b60405180910390f35b6100d261035e565b6040516100df9190610ba9565b60405180910390f35b61010260048036038101906100fd9190610cf9565b610364565b005b61010c610498565b6040516101199190610ba9565b60405180910390f35b61012a6104e3565b6040516101379190610e67565b60405180910390f35b6101486108af565b600080838152602001908152602001600020604051806080016040529081600082015481526020016001820160009054906101000a900473ffffffffffffffffffffffffffffffffffffffff1673ffffffffffffffffffffffffffffffffffffffff1673ffffffffffffffffffffffffffffffffffffffff1681526020016002820180546101d590610eb8565b80601f016020809104026020016040519081016040528092919081815260200182805461020190610eb8565b801561024e5780601f106102235761010080835404028352916020019161024e565b820191906000526020600020905b81548152906001019060200180831161023157829003601f168201915b505050505081526020016003820160009054906101000a900460ff1615151515815250509050919050565b60006020528060005260406000206000915090508060000154908060010160009054906101000a900473ffffffffffffffffffffffffffffffffffffffff16908060020180546102c890610eb8565b80601f01602080910402602001604051908101604052809291908181526020018280546102f490610eb8565b80156103415780601f1061031657610100808354040283529160200191610341565b820191906000526020600020905b81548152906001019060200180831161032457829003601f168201915b5050505050908060030160009054906101000a900460ff16905084565b60015481565b604051806080016040528060015481526020013373ffffffffffffffffffffffffffffffffffffffff1681526020018281526020016001151581525060008060015481526020019081526020016000206000820151816000015560208201518160010160006101000a81548173ffffffffffffffffffffffffffffffffffffffff021916908373ffffffffffffffffffffffffffffffffffffffff160217905550604082015181600201908161041a9190611095565b5060608201518160030160006101000a81548160ff0219169083151502179055509050506001600081548092919061045190611196565b91905055506104956040518060400160405280601c81526020017f257320686173207369676e656420746865206775657374626f6f6b21000000008152503361074e565b50565b60006104db6040518060400160405280601881526020017f5765206861766520256420746f74616c206775657374732100000000000000008152506001546107ea565b600154905090565b6060600060015467ffffffffffffffff81111561050357610502610bce565b5b60405190808252806020026020018201604052801561053c57816020015b6105296108af565b8152602001906001900390816105215790505b50905060005b6001548110156106ad576000806000838152602001908152602001600020905080604051806080016040529081600082015481526020016001820160009054906101000a900473ffffffffffffffffffffffffffffffffffffffff1673ffffffffffffffffffffffffffffffffffffffff1673ffffffffffffffffffffffffffffffffffffffff1681526020016002820180546105de90610eb8565b80601f016020809104026020016040519081016040528092919081815260200182805461060a90610eb8565b80156106575780601f1061062c57610100808354040283529160200191610657565b820191906000526020600020905b81548152906001019060200180831161063a57829003601f168201915b505050505081526020016003820160009054906101000a900460ff16151515158152505083838151811061068e5761068d6111de565b5b60200260200101819052505080806106a590611196565b915050610542565b508091505090565b61074b816040516024016106c9919061120d565b6040516020818303038152906040527f41304fac000000000000000000000000000000000000000000000000000000007bffffffffffffffffffffffffffffffffffffffffffffffffffffffff19166020820180517bffffffffffffffffffffffffffffffffffffffffffffffffffffffff8381831617835250505050610886565b50565b6107e6828260405160240161076492919061122f565b6040516020818303038152906040527f319af333000000000000000000000000000000000000000000000000000000007bffffffffffffffffffffffffffffffffffffffffffffffffffffffff19166020820180517bffffffffffffffffffffffffffffffffffffffffffffffffffffffff8381831617835250505050610886565b5050565b610882828260405160240161080092919061125f565b6040516020818303038152906040527fb60e72cc000000000000000000000000000000000000000000000000000000007bffffffffffffffffffffffffffffffffffffffffffffffffffffffff19166020820180517bffffffffffffffffffffffffffffffffffffffffffffffffffffffff8381831617835250505050610886565b5050565b60008151905060006a636f6e736f6c652e6c6f679050602083016000808483855afa5050505050565b604051806080016040528060008152602001600073ffffffffffffffffffffffffffffffffffffffff168152602001606081526020016000151581525090565b6000604051905090565b600080fd5b600080fd5b6000819050919050565b61091681610903565b811461092157600080fd5b50565b6000813590506109338161090d565b92915050565b60006020828403121561094f5761094e6108f9565b5b600061095d84828501610924565b91505092915050565b61096f81610903565b82525050565b600073ffffffffffffffffffffffffffffffffffffffff82169050919050565b60006109a082610975565b9050919050565b6109b081610995565b82525050565b600081519050919050565b600082825260208201905092915050565b60005b838110156109f05780820151818401526020810190506109d5565b60008484015250505050565b6000601f19601f8301169050919050565b6000610a18826109b6565b610a2281856109c1565b9350610a328185602086016109d2565b610a3b816109fc565b840191505092915050565b60008115159050919050565b610a5b81610a46565b82525050565b6000608083016000830151610a796000860182610966565b506020830151610a8c60208601826109a7565b5060408301518482036040860152610aa48282610a0d565b9150506060830151610ab96060860182610a52565b508091505092915050565b60006020820190508181036000830152610ade8184610a61565b905092915050565b610aef81610903565b82525050565b610afe81610995565b82525050565b600082825260208201905092915050565b6000610b20826109b6565b610b2a8185610b04565b9350610b3a8185602086016109d2565b610b43816109fc565b840191505092915050565b610b5781610a46565b82525050565b6000608082019050610b726000830187610ae6565b610b7f6020830186610af5565b8181036040830152610b918185610b15565b9050610ba06060830184610b4e565b95945050505050565b6000602082019050610bbe6000830184610ae6565b92915050565b600080fd5b600080fd5b7f4e487b7100000000000000000000000000000000000000000000000000000000600052604160045260246000fd5b610c06826109fc565b810181811067ffffffffffffffff82111715610c2557610c24610bce565b5b80604052505050565b6000610c386108ef565b9050610c448282610bfd565b919050565b600067ffffffffffffffff821115610c6457610c63610bce565b5b610c6d826109fc565b9050602081019050919050565b82818337600083830152505050565b6000610c9c610c9784610c49565b610c2e565b905082815260208101848484011115610cb857610cb7610bc9565b5b610cc3848285610c7a565b509392505050565b600082601f830112610ce057610cdf610bc4565b5b8135610cf0848260208601610c89565b91505092915050565b600060208284031215610d0f57610d0e6108f9565b5b600082013567ffffffffffffffff811115610d2d57610d2c6108fe565b5b610d3984828501610ccb565b91505092915050565b600081519050919050565b600082825260208201905092915050565b6000819050602082019050919050565b6000608083016000830151610d866000860182610966565b506020830151610d9960208601826109a7565b5060408301518482036040860152610db18282610a0d565b9150506060830151610dc66060860182610a52565b508091505092915050565b6000610ddd8383610d6e565b905092915050565b6000602082019050919050565b6000610dfd82610d42565b610e078185610d4d565b935083602082028501610e1985610d5e565b8060005b85811015610e555784840389528151610e368582610dd1565b9450610e4183610de5565b925060208a01995050600181019050610e1d565b50829750879550505050505092915050565b60006020820190508181036000830152610e818184610df2565b905092915050565b7f4e487b7100000000000000000000000000000000000000000000000000000000600052602260045260246000fd5b60006002820490506001821680610ed057607f821691505b602082108103610ee357610ee2610e89565b5b50919050565b60008190508160005260206000209050919050565b60006020601f8301049050919050565b600082821b905092915050565b600060088302610f4b7fffffffffffffffffffffffffffffffffffffffffffffffffffffffffffffffff82610f0e565b610f558683610f0e565b95508019841693508086168417925050509392505050565b6000819050919050565b6000610f92610f8d610f8884610903565b610f6d565b610903565b9050919050565b6000819050919050565b610fac83610f77565b610fc0610fb882610f99565b848454610f1b565b825550505050565b600090565b610fd5610fc8565b610fe0818484610fa3565b505050565b5b8181101561100457610ff9600082610fcd565b600181019050610fe6565b5050565b601f8211156110495761101a81610ee9565b61102384610efe565b81016020851015611032578190505b61104661103e85610efe565b830182610fe5565b50505b505050565b600082821c905092915050565b600061106c6000198460080261104e565b1980831691505092915050565b6000611085838361105b565b9150826002028217905092915050565b61109e826109b6565b67ffffffffffffffff8111156110b7576110b6610bce565b5b6110c18254610eb8565b6110cc828285611008565b600060209050601f8311600181146110ff57600084156110ed578287015190505b6110f78582611079565b86555061115f565b601f19841661110d86610ee9565b60005b8281101561113557848901518255600182019150602085019450602081019050611110565b86831015611152578489015161114e601f89168261105b565b8355505b6001600288020188555050505b505050505050565b7f4e487b7100000000000000000000000000000000000000000000000000000000600052601160045260246000fd5b60006111a182610903565b91507fffffffffffffffffffffffffffffffffffffffffffffffffffffffffffffffff82036111d3576111d2611167565b5b600182019050919050565b7f4e487b7100000000000000000000000000000000000000000000000000000000600052603260045260246000fd5b600060208201905081810360008301526112278184610b15565b905092915050565b600060408201905081810360008301526112498185610b15565b90506112586020830184610af5565b9392505050565b600060408201905081810360008301526112798185610b15565b90506112886020830184610ae6565b939250505056fea26469706673582212206db98318397ea69135f1d57bec44d13fcf4cf3df1d4dab78747dd3a7e002399364736f6c63430008110033",
  "linkReferences": {},
  "deployedLinkReferences": {}
}